:1000000003308A00212B00000A108A100A1182078F
:10001000483465346C346C346F3400340A108A1000
:100020000A118207433461346D34203462346934F8
:1000300065346E343A3420344F344B342134003438
:100040000A108A100A1182074C346F346934203444
:10005000633461346D3420346234693465346E3411
:10006000213400340A108A100A1182070C3400343B
:100070000A108A100A11820753346F342034733403
:1000800061346E3420347034683461346D3420341B
:100090006C3461343A3400340A108A100A11820731
:1000A000543461346D342034643475346E346734C0
:1000B000213400340A108A100A118207443475343E
:1000C0006E34673420346B346534743420347134C6
:1000D0007534613420346C3461346E3400340A1069
:1000E0008A100A1182077434723475346F346334A1
:1000F00000340A108A100A118207563475346934A4
:1001000020346C346F346E34673420346334683494
:100110006F346E3400340A108A100A118207633477
:1001200068346534203464346F34003436308400ED
:10013000831300080319AA280130F800F701F70B10
:100140009F28F80B9E284A30F700F70BA528A8280F
:10015000800B9C2808003D18AF288612B028861610
:10016000831686128312BD18B7280612B828061601
:100170008316061283123D19BF288611C0288615E2
:10018000831686118312BD19C7280611C8280615C3
:100190008316061100008312061783160613D02853
:1001A000831206138316061383120800BE018316FA
:1001B000861600308312861A0130BE048316061696
:1001C00000308312061A0130F7000310F70D77088C
:1001D000BE04831686150030831286190130F7009D
:1001E000F70DF70DFC30F7057708BE0483160615EA
:1001F0000030831206190130F700F70DF70DF70DE7
:10020000F830F7057708BE043E08F80008008316AA
:10021000061386138610831286138316861386169A
:10022000061686150615831286148316861000009E
:10023000831206178316061300008312D62078084F
:10024000BD000613831606130000831206178316DB
:10025000061300008312D6207808BC00061383160C
:100260000613861206128611061183123D0EF70040
:10027000F030F70577083C04F8007808BC00BC1F94
:10028000432983160F29BA08031D482986134929D3
:100290008617831686130000831286108316861035
:1002A0000000831206138316061383123B0EBC0054
:1002B0000F30BC053C08BD00AB203B080F39BC002B
:1002C000BD00AB2008002830A6000C30A70001308C
:1002D000A8000630A900061383160613831286139E
:1002E00083168613831286108316861086120612D2
:1002F000861106110613861386100F308312B6007E
:1003000096200130A5002508033C031C8F290330EB
:10031000BD00AB200530B6009620A50A8329023027
:10032000BD00AB200530B6009620A5012508033C92
:10033000031CA62926302507840083130008AA0081
:10034000BA012A08BB000721A50A96292C2B370BD6
:10035000AA29AD294030B800AE29B80101303602D3
:10036000B80738088038B900BA013908BB0007213E
:1003700008003508073A0319C7290B3A0319CC2995
:10038000063A0319D429023A0319DA29DF29013080
:10039000B600B700A721E429BA010130BB0007214C
:1003A0000230B6009620E4290130B6000230B700D2
:1003B000A721E429BA011030BB000721E42901304C
:1003C000BA003508BB00072108000130B600B700AD
:1003D000A721A5012508042000380319F329A50A3F
:1003E000B500B921EA290430A500FA30B6009620FC
:1003F000A50BF5290130B6000230B700A7218316FE
:1004000005148312051C0F2AA50125080E200038AB
:1004100003190E2AA50AB500B921052A462A831612
:100420000514831205183C2A0330B6000230B700C9
:10043000A721A5012508202000380319232AA50A91
:10044000B500B9211A2A0230A500FA30B60096206C
:10045000A50B252AA5012508322000380319342AC6
:10046000A50AB500B9212B2A0230A500FA30B60042
:100470009620A50B362A0F2AA50125080E20003844
:100480000319462AA50AB500B9213D2A322BA50138
:10049000831605148312051C722AA508031D582A09
:1004A0000130A0070318A10A0319A20A0319A30A1D
:1004B0000B08F7008B13013083169B008312200872
:1004C00083169A009C131C1555309D00AA309D0080
:1004D0009C149C18692A1C11770883128B04013024
:1004E000A500482A2008F7002108F8002208F90092
:1004F0002308FA0008008318802A3D308400831303
:10050000F701F801F901FA01BD01BE01BF01C00107
:100510003C083B043A0439040319BE2A2030C100C8
:100520000310B50DB60DB70DB80DBD0DBE0DBF0D49
:10053000C00D3C084002031DA72A3B083F02031DD3
:10054000A72A3A083E02031DA72A39083D02031CC8
:10055000B82A3908BD023A08031C3A0FBE023B080C
:10056000031C3B0FBF023C08031C3C0FC0020314DA
:10057000F70DF80DF90DFA0DC10B902A3D0880001A
:10058000840A3E088000840A3F088000840A4008EC
:10059000800008000408AD003B30B4009A30B3007E
:1005A000CA30B200B1010A30AF0083142930840090
:1005B00083132C08B8002B08B7002A08B6002908B6
:1005C000B5003408BC003308BB003208BA0031085B
:1005D000B9007B227808F708031D012B2F08013A88
:1005E0000319012B2D080319022B0F392F020319B0
:1005F000FB2A0318072BAD1B072B2D1B022B2030CA
:10060000032BAD013030F7077708B500B92183100F
:100610003408B8003308B7003208B6003108B50016
:10062000BC01BB01BA010A30B9007B227A08B400D0
:100630007908B3007808B2007708B100AF0BD52A6B
:10064000080003081F398300A301A201A101A00132
:1006500007309F00831363290130831685008312BE
:10066000A401E5290230A500FA30B6009620A50BBA
:10067000342BA5012508322000380319432BA50A85
:10068000B500B9213A2B831685148312851C4B2B98
:100690000130A4005C2B831605158312051D552B14
:1006A000240B552B0230A4005C2B83168515831276
:1006B000851D5C2B0330A4000130B600B700A721D4
:1006C0002408FC3E0318322C043E342C0130B600C2
:1006D000B700A721A5012508382000380319742B7D
:1006E000A50AB500B9216B2B0130B6000230B70066
:1006F000A72147227A08A8007908A7007808A60051
:100700007708A500413084007A08AC007908AB0076
:100710007808AA007708A900CA222030B500B921BC
:100720005330B500B9215030B500B921322CA501A4
:100730002508322000380319A12BA50AB500B921DC
:10074000982B0130B600B700A721A50125084C2041
:1007500000380319AF2BA50AB500B921A62B4722F3
:100760007A08A8007908A7007808A6007708A500ED
:10077000413084007A08AC007908AB007808AA0000
:100780007708A900CA222030B500B9215330B5003E
:10079000B9215030B500B921322C013083169B00AD
:1007A0009C131C141A088312A301A201A101A0002A
:1007B0000130B600B700A721A50125085A2000384E
:1007C0000319E62BA50AB500B921DD2B0130B600CF
:1007D0000230B700A721A50125086F2000380319B2
:1007E000F52BA50AB500B921EC2B0830A500FA308D
:1007F000B6009620A50BF72B0130A400A501250813
:10080000322000380319082CA50AB500B921FF2BA6
:10081000322CA5012508792000380319132CA50ACC
:10082000B500B9210A2C0130B6000230B700A7216B
:10083000A50125088B2000380319222CA50AB50034
:10084000B921192CFA30B6009620A50125083220CE
:10085000003803192F2CA50AB500B921262CFA302F
:10086000B6009620432B63000A108A100A158207EF
:08087000092C662B972BCD2B00
:02400E00213F50
:00000001FF
;PIC16F628A
;CRC=C3DA  CREATED="22-Sep-17 19:32"
