:1000000005308A00172D0000C8326C366F00C330EF
:100010006D10E23465373A10CF252100CC376910D6
:10002000E3306D10E234653721000C00C3306D10F1
:10003000E23465373A10CF2521000C00D337A039C0
:1000400061372038E8306D10EC303A000C00D430C5
:100050006D10E43AEE332100C43AEE33A035653A30
:10006000A038F5302036613700017439F537630068
:100070000C00D63A6910EC37EE33A031E8376E0049
:1000800063346510E43700010C003C3084008313B6
:100090000008031958280630F800F701F70B4E281E
:1000A000F80B4D287B30F700F70B5428800B4B28BA
:1000B000080043185D2806125E28061683160612ED
:1000C0008312C31865288611662886158316861143
:1000D000831243196D2806116E2806158316061122
:1000E0008312C31975288610762886148316861005
:1000F000000083128616831686120230F700F70B73
:100100007F288228000083128612831686128312AB
:100110000800C4018316061600308312061A013047
:10012000C404831686150030831286190130F70047
:100130000310F70D7708C4048316061500308312E8
:1001400006190130F700F70DF70DFC30F7057708B9
:10015000C404831686140030831286180130F70019
:10016000F70DF70DF70DF830F7057708C4044408CC
:10017000F80008008316861286130613831286136E
:10018000831686130616861506158614831206171F
:10019000831606130000831286168316861200004B
:1001A000831289207808C300861283168612000005
:1001B0008312861683168612DD28DE28000083123D
:1001C00089207808C20086128316861206128611CC
:1001D000061186108312430EF700F030F7057708FA
:1001E0004204F8007808C200C21FF8288316C2280B
:1001F000C008031DFD288613FE2886178316861364
:100200000000831206138316061300008312861261
:10021000831686128312410EC2000F30C2054208B7
:10022000C300592041080F39C200C30059200800FB
:100230002830AC000C30AD000130AE000630AF000D
:1002400086128316861283128613831686138312F0
:1002500006138316061306128611061186108612DF
:10026000861306130F308312BC0045200130AB000B
:100270002B08033C031C44290330C30059200530DC
:10028000BC004520AB0A38290230C3005920053094
:10029000BC004520AB012B08033C031C5B292C3020
:1002A0002B07840083130008B000C0013008C10090
:1002B000BA20AB0A4B298A11842DA0152008831679
:1002C00087008312201620088316870083128A1164
:1002D0009B2D3D0B6C296F294030BE007029BE015B
:1002E00001303C02BE073E088038BF00C0013F0815
:1002F000C100BA2008003B08073A031989290B3AC4
:1003000003198E29063A03199629023A03199C29E2
:10031000A1290130BC00BD006921A629C00101301E
:10032000C100BA200230BC004520A6290130BC0023
:100330000230BD006921A629C0011030C100BA20D9
:10034000A6290130C0003B08C100BA2008000B08F4
:10035000AB008B13831603178C170C1400000000DE
:1003600083120313AB1B8B1703170C087F39031978
:10037000FB290313AB0003170D080313AC0003178D
:100380000F080313AD002B08BB007B212C080317BB
:100390008D0003132D0803178F0003130B08AE0005
:1003A0008B13831603178C170C14000000008312A4
:1003B0000313AE1B8B1703170C0D0E0D7F3903199A
:1003C000FB290313AB0003170D080313AC0003173D
:1003D0000F080313AD002B08BB007B212C0803176B
:1003E0008D0003132D0803178F008D0A03198F0A40
:1003F0000313A7290317031308000130BC00BD0035
:100400006921043003178D0000308F000313A721EA
:100410000430AB00FA30BC004520AB0B0A2A013097
:10042000BC000230BD0069219F149F18152A1E08C8
:10043000FA0083161E088312AB007A08AC00280865
:100440002C02031C312A031D292A27082B02031C16
:10045000312A073003178D0000308F000313A721C6
:100460006E2A9F18312A1E08FA0083161E0883126E
:10047000AB007A08AC002802031C672A031D442A3B
:1004800027082B020318672A0330BC000230BD0086
:1004900069210E3003178D0000308F000313A72150
:1004A0000230AB00FA30BC004520AB0B522A1530AD
:1004B00003178D0000308F000313A7219F14023013
:1004C000AB00FA30BC004520AB0B612A312A163054
:1004D00003178D0000308F000313A7218A11B72D59
:1004E0008318752A433084008313F701F801F9015A
:1004F000FA01C301C401C501C60142084104400418
:100500003F040319B32A2030C7000310BB0DBC0DF4
:10051000BD0DBE0DC30DC40DC50DC60D420846026E
:10052000031D9C2A41084502031D9C2A40084402E1
:10053000031D9C2A3F084302031CAD2A3F08C30247
:100540004008031C400FC4024108031C410FC502B0
:100550004208031C420FC6020314F70DF80DF90DF3
:10056000FA0DC70B852A43088000840A44088000DE
:10057000840A45088000840A4608800008000408B0
:10058000B3003B30BA009A30B900CA30B800B701A6
:100590000A30B50083142F30840083133208BE0064
:1005A0003108BD003008BC002F08BB003A08C2006B
:1005B0003908C1003808C0003708BF007022780829
:1005C000F708031DF62A3508013A0319F62A3308FD
:1005D0000319F72A0F3935020319F02A0318FC2AE8
:1005E000B31BFC2A331BF72A2030F82AB301303022
:1005F000F7077708BB007B2183103A08BE00390853
:10060000BD003808BC003708BB00C201C101C001F1
:100610000A30BF0070227A08BA007908B900780859
:10062000B8007708B700B50BCA2A08000830F800F0
:100630000430F700F70B1A2B8711A011200883163E
:1006400087000330F700F70B232B8312AF0D07123F
:10065000031C302B2016200883168700342B8312AE
:10066000201220088316870000008312A01520089E
:10067000831687008312871D3B2BF80B182B043041
:10068000F700F70B412B8711A01120088316870074
:100690000000831220162008831687000330F7001D
:1006A000F70B502B0330F700F70B542B8312A015D8
:1006B0002008831687008312871D5C2BF801033006
:1006C000F700F70B612B071A78148711A011200887
:1006D00083168700831207122012200883168700D2
:1006E0008312080020162008831687000430F700C4
:1006F000F70B782B8312A015200883168700033090
:10070000F700F70B812B83120712201220088316A3
:1007100087000430F700F70B8B2B83128711A01191
:10072000200883168700A0308312AF0016237808B4
:100730002E1078182E14201220088316870000002F
:100740008312A0152008831687008312871DA62B0D
:100750000430F700F70BAA2BAD2B00002016200861
:10076000831687000430F700F70BB42B0030831298
:100770002E1C0130F8000800AB019F149F18BE2BFF
:100780001E08FA0083161E088312AC007A08AD001A
:1007900028082D02031C442C031DD22B27082C02F1
:1007A000031C442C20142008831687008312071C86
:1007B000E62BA0142008831687008312871CE62BE3
:1007C00020152008831687008312071D442CAB08D0
:1007D000031DF22B0130A1070318A20A0319A30A73
:1007E0000319A40A0130AC002108AD007223F808F7
:1007F0000319F62B20162008831687000430F70013
:10080000F70B002C8312A0152008831687000330F5
:10081000F700F70B092C8312071220122008831609
:1008200087000430F700F70B132C83128711A011F7
:10083000200883168700A0308312AF0016232C08EF
:10084000AF0016232D08AF001623201220088316B0
:10085000870000008312A0152008831687008312EA
:10086000871D302C0430F700F70B342C372C000098
:1008700020162008831687000430F700F70B3E2C63
:1008800001308312AB00BD2B2108F7002208F800CD
:100890002308F9002408FA008A11182E7223F80898
:1008A00003194E2C20162008831687000430F70009
:1008B000F70B582C8312A0152008831687000330ED
:1008C000F700F70B612C8312071220122008831601
:1008D00087000430F700F70B6B2C83128711A011EF
:1008E000200883168700A0308312AF0016232B0840
:1008F000AF00162320162008831687000430F70067
:10090000F70B802C8312A015200883168700033074
:10091000F700F70B892C8312871D8C2C07122012ED
:100920002008831687000430F700F70B952C8312FC
:100930008711A011200883168700A1308312AF0011
:100940001623F7010830AE007708AF002016200804
:10095000831687000330F700F70BAC2C8312A01529
:100960002008831687008312871DB42C071A0314EE
:10097000071E0310F80D0430F700F70BBD2CA01173
:1009800020088316870083128711AE0BA62C201631
:100990002008831687000330F700F70BCD2C831255
:1009A00007122F080319D92C20122008831687005C
:1009B00083120000A0152008831687008312871D6C
:1009C000DF2C0430F700F70BE32C8711A01120086F
:1009D000831687000330F700F70BEC2C8312071205
:1009E000201220088316870078088312AC0020129A
:1009F00020088316870000008312A01520088316A4
:100A000087008312871D022D0430F700F70B062D97
:100A1000092D000020162008831687000430F700F7
:100A2000F70B102D83122C08F8008A114B2E0308A7
:100A30001F398300FF30A000A401A301A201A1017E
:100A4000A6010530A5002608AC002508AB00033040
:100A5000AE00FF30AD001030AF00F701FA01AC0C72
:100A6000AB0C031C392D2D08F7070318FA0A2E08C2
:100A7000FA07FA0CF70CF90CF80CAF0B2F2D7908CC
:100A8000AC007808AB002C08AE002B08AD00B0011C
:100A90000530AF00F801F901F701FA013008031D34
:100AA000542D2F0803196E2D1030B1000310AD0D19
:100AB000AE0DF70DFA0D30087A02031D612D2F08D7
:100AC0007702031C6A2D2F08F702031CFA03300873
:100AD000FA020314F80DF90DB10B562D7908A80090
:100AE0007808A700831603170908C0398900031383
:100AF0001F129F120030031788008312870188019C
:100B000089018313031318290130831685000730E8
:100B100087008312A0002014200883168700831208
:100B2000A01420088316870083122015200883163E
:100B3000870083125D291F139F1383169F1783124B
:100B40001F14831603170908C039890003131F12E5
:100B50009F120130031788001030F700F70BAE2DFD
:100B6000000083120313A9010130AA00FD290230FD
:100B7000AB00FA30BC004520AB0BB92D1D3003177C
:100B80008D0000308F000313A72120142008831646
:100B9000870083120718CF2D0130A900E42DA0147F
:100BA00020088316870083128718DB2D290BDB2D85
:100BB0000230A900E42D2015200883168700831237
:100BC0000719E42D0330A9000130BC00BD006921E4
:100BD0002908FC3E0318982E043E9A2E0130BC00D2
:100BE000BD0069211E3003178D0000308F000313F4
:100BF000A7210130BC000230BD006921AA080319F9
:100C0000172E413084002408B2002308B1002208C6
:100C1000B0002108AF00BF222030BB007B21533041
:100C2000BB007B215030BB007B21AA01342EBC2BA2
:100C30007A08AE007908AD007808AC007708AB0000
:100C4000413084007A08B2007908B1007808B00019
:100C50007708AF00BF222030BB007B215330BB00A0
:100C60007B215030BB007B21982E263003178D004E
:100C700000308F000313A7210130BC00BD006921A3
:100C8000273003178D0000308F000313A721982E03
:100C90000130AB004E2CA401A301A2017808A100F1
:100CA0000130BC00BD0069212C3003178D000030DD
:100CB0008F000313A7210130BC000230BD00692161
:100CC000353003178D0000308F000313A721083043
:100CD000AB00FA30BC004520AB0B692E0130A900F7
:100CE000383003178D0000308F000313A721982E92
:100CF000393003178D0000308F000313A721013016
:100D0000BC000230BD006921403003178D00003067
:100D10008F000313A721FA30BC004520443003178D
:100D20008D0000308F000313A721FA30BC0045204E
:100D3000C52D63000A108A140A158207782EEE2D3D
:040D4000352E482ED6
:04400E00E22CFF3F62
:00000001FF
;PIC16F883
;CRC=C863  CREATED="23-Sep-17 02:19"
